:020000040800F2
:1000000000280020410F0008D90D0008DF0D00086E
:10001000E50D0008EB0D0008F10D000800000000E0
:10002000000000000000000000000000F70D0008C4
:10003000030E0008000000000F0E00081B0E000851
:10004000890F0008890F0008890F0008890F000830
:10005000890F0008890F0008890F0008890F000820
:10006000890F0008890F0008890F0008890F000810
:10007000890F0008890F0008890F0008890F000800
:10008000890F0008890F0008890F0008890F0008F0
:10009000890F0008890F0008890F0008890F0008E0
:1000A000890F0008890F0008890F0008890F0008D0
:1000B000290E0008890F000800000000890F0008C1
:1000C000890F00080000000000000000890F0008F0
:1000D00000000000890F0008890F000800000000E0
:1000E000890F0008890F0008890F00080000000030
:1000F0000000000000000000000000000000000000
:0C01000000000000000000005FF808F1A3
:10010C0010B5054C237833B9044B13B10448AFF345
:10011C0000800123237010BD50000020000000005F
:10012C00B025000808B5034B1BB103490348AFF3D6
:10013C00008008BD0000000054000020B02500081D
:10014C0080B483B000AF78607B68032B01DD0023A3
:10015C000DE0094A7B6852F82330002B06D0064A82
:10016C007B68002142F82310012300E0002318468D
:10017C000C37BD4680BC70476C00002080B483B047
:10018C0000AF78607B68032B01DD00230DE0094A8A
:10019C007B6852F82330002B06D0064A7B6800217E
:1001AC0042F82310012300E0002318460C37BD460B
:1001BC0080BC70477800002080B483B000AF7860BA
:1001CC00064A7B6852F82330012B01D1012300E051
:1001DC00002318460C37BD4680BC70473000002009
:1001EC0080B582B000AF00237B605DE0324A7B6853
:1001FC0052F8232031497B6841F82320304A7B6830
:10020C0052F823202C497B6841F823207B68022B71
:10021C001FD07B68022B27DC7B68002B03D07B680C
:10022C00012B0BD020E00221264801F093F9034664
:10023C001946234A7B6842F8231016E00421214812
:10024C0001F088F9034619461D4A7B6842F82310D1
:10025C000BE008211B4801F07DF903461946184AAA
:10026C007B6842F8231000E000BF144A7B6852F808
:10027C00232011497B6851F823309A4211D10E4A40
:10028C007B6852F823200E497B6851F823309A4240
:10029C0007D10B4A7B6852F823200B497B6841F845
:1002AC0023207B6801337B607B68022B9EDD00BFC3
:1002BC0000BF0837BD4680BD180000200C00002090
:1002CC0024000020000801403000002080B582B0DE
:1002DC0000AF00237B605FE0334A7B6852F8233029
:1002EC000C2B38D00C2B4DDC0A2B02D00B2B16D040
:1002FC0048E02E4A7B6852F82330002B44D12C4A1C
:10030C007B68012142F8231040F6B831786800F080
:10031C0095FD254A7B680B2142F8231034E0786860
:10032C0000F0BEFD0346002B09D0224A7B68012158
:10033C0042F823101C4A7B680C2142F823101B4AFC
:10034C007B6852F82330012B20D1174A7B680A2195
:10035C0042F823101AE0154A7B6852F82330002B20
:10036C0004D1144A7B68012142F823100F4A7B68A0
:10037C0052F82330012B0BD10B4A7B680A2142F82F
:10038C00231005E000BF04E000BF02E000BF00E066
:10039C0000BF7B6801337B607B68022B9CDD00BF58
:1003AC0000BF0837BD4680BD000000203000002093
:1003BC006C0000207800002080B500AFB64B1B68A5
:1003CC00143B032B00F2868101A252F823F000BFEC
:1003DC00ED030008B90400083F05000807060008F3
:1003EC00032000F05DFD0346002B12D0AB4B1B68C5
:1003FC00002B04DDA94B1B68013BA84A1360A74BDB
:10040C001B68184600F0D2F94FF47A71032000F003
:10041C0015FD0020FFF794FE0346002B05D00320AA
:10042C0000F026FD9C4B15221A600120FFF788FE78
:10043C000346002B1AD0032000F01AFD974B1B68C3
:10044C00591C974B83FB01239A10CB17D21A1346D6
:10045C009B0013445B00CA1A904B1A608F4B1B68AD
:10046C00184600F0A3F98C4B16221A600220FFF7F5
:10047C0067FE0346002B00F02681032000F0F8FCF9
:10048C00864B1B68002B05DD844B1B68013B834AA4
:10049C00136002E0814B09221A60804B1B681846DE
:1004AC0000F084F97C4B17221A600CE17B4B002284
:1004BC001A607A4B1B68184600F078F90120FFF798
:1004CC003FFE0346002B17D0744B1B68591C744B12
:1004DC0083FB01239A10CB17D21A13469B001344AB
:1004EC005B00CA1A6D4B1A606C4B1B68184600F007
:1004FC005DF9694B16221A600220FFF721FE0346B4
:10050C00002B00F0E280654B1B68002B05DD634B74
:10051C001B68013B614A136002E0604B09221A60C0
:10052C005E4B1B68184600F041F95B4B17221A60B2
:10053C00CBE00120FFF704FE0346002B14D0574BF1
:10054C001B68591C564B83FB01239A10CB17D21AEC
:10055C0013469B0013445B00CA1A504B1A604F4B56
:10056C001B68184600F022F90020FFF7E9FD03464E
:10057C00002B02D0484B15221A600220FFF7E0FD39
:10058C000346002B14D0454B1B68002B05DD434B59
:10059C001B68013B414A136002E0404B09221A6080
:1005AC003E4B1B68184600F001F93B4B17221A60B2
:1005BC000120FFF7E3FD0346002B00F08880374B4A
:1005CC001B68591C364B83FB01239A10CB17D21A8C
:1005DC0013469B0013445B00CA1A304B1A602F4B16
:1005EC001B68184600F0E2F84FF47A71032000F013
:1005FC0025FC294B20221A6069E00220FFF7A0FDA0
:10060C000346002B11D0254B1B68002B05DD234B1B
:10061C001B68013B214A136002E0204B09221A603F
:10062C001E4B1B68184600F0C1F80020FFF788FD30
:10063C000346002B02D0184B15221A600120FFF73D
:10064C007FFD0346002B17D0144B1B68591C144B11
:10065C0083FB01239A10CB17D21A13469B00134429
:10066C005B00CA1A0D4B1A600C4B1B68184600F045
:10067C009DF8094B16221A600220FFF77FFD0346F6
:10068C00002B26D0054B1B68002B0BDD034B1B6886
:10069C00013B024A136008E0400000203C000020AF
:1006AC00676666660C4B09221A600B4B1B68184672
:1006BC0000F07CF84FF47A71032000F0BFFB074B7D
:1006CC0021221A6005E000BF04E000BF02E000BF79
:1006DC0000E000BF00BF80BD3C00002040000020B7
:1006EC0080B500AF2E4B1B68202B02D0212B2AD0BB
:1006FC0053E0032000F0D4FB0346002B19D0294B08
:10070C001B68591C284B83FB01239A10CB17D21A58
:10071C0013469B0013445B00CA1A224B1A60214BF0
:10072C001B68184600F042F84FF47A71032000F071
:10073C0085FB0120FFF740FD0346002B2AD0032048
:10074C0000F096FB26E0032000F0AAFB0346002BEA
:10075C0016D0144B1B68002B05DD124B1B68013B9C
:10076C00104A136002E00F4B09221A600D4B1B68F4
:10077C00184600F01BF84FF47A71032000F05EFB72
:10078C000220FFF719FD0346002B05D0032000F0D3
:10079C006FFB01E000BF00E000BF00BF80BD00BFE9
:1007AC00400000203C0000206766666680B582B081
:1007BC0000AF78607B68092B00F2808101A252F8AF
:1007CC0023F000BFF9070008410800088908000859
:1007DC00D10800081909000861090008A9090008D6
:1007EC00F1090008390A0008810A000800220121D9
:1007FC00B54800F0C6FE00220221B34800F0C1FE4D
:10080C0000220421B04800F0BCFE00220821AE48B2
:10081C0000F0B7FE00221021AB4800F0B2FE00221F
:10082C002021A94800F0ADFE01224021A64800F08D
:10083C00A8FE44E101220121A34800F0A2FE0022FF
:10084C000221A14800F09DFE002204219E4800F0E8
:10085C0098FE012208219C4800F093FE01221021F1
:10086C00994800F08EFE01222021974800F089FE65
:10087C0001224021944800F084FE20E10022012155
:10088C00914800F07EFE002202218F4800F079FE94
:10089C00012204218C4800F074FE002208218A48B1
:1008AC0000F06FFE00221021874800F06AFE012242
:1008BC002021854800F065FE00224021824800F08E
:1008CC0060FEFCE0002201217F4800F05AFE00226D
:1008DC0002217D4800F055FE002204217A4800F0E8
:1008EC0050FE00220821784800F04BFE0122102116
:1008FC00754800F046FE01222021734800F041FEAD
:10090C0000224021704800F03CFED8E00122012179
:10091C006D4800F036FE002202216B4800F031FEDB
:10092C0000220421684800F02CFE012208216648B0
:10093C0000F027FE01221021634800F022FE002265
:10094C002021614800F01DFE002240215E4800F08D
:10095C0018FEB4E0002201215B4800F012FE0122D7
:10096C000221594800F00DFE00220421564800F0E7
:10097C0008FE00220821544800F003FE0122102139
:10098C00514800F0FEFD002220214F4800F0F9FDF7
:10099C00002240214C4800F0F4FD90E0002201219F
:1009AC00494800F0EEFD01220221474800F0E9FD24
:1009BC0000220421444800F0E4FD002208214248B2
:1009CC0000F0DFFD002210213F4800F0DAFD00228C
:1009DC0020213D4800F0D5FD002240213A4800F08E
:1009EC00D0FD6CE000220121374800F0CAFD002246
:1009FC000221354800F0C5FD00220421324800F0E8
:100A0C00C0FD01220821304800F0BBFD012210215D
:100A1C002D4800F0B6FD012220212B4800F0B1FD3D
:100A2C0001224021284800F0ACFD48E000220121C1
:100A3C00254800F0A6FD00220221234800F0A1FD6C
:100A4C0000220421204800F09CFD002208211E48B1
:100A5C0000F097FD002210211B4800F092FD0022AF
:100A6C002021194800F08DFD00224021164800F08D
:100A7C0088FD24E000220121134800F082FD0022B1
:100A8C000221114800F07DFD002204210E4800F0E7
:100A9C0078FD002208210C4800F073FD0122102182
:100AAC00094800F06EFD00222021074800F069FD86
:100ABC0000224021044800F064FD00E000BF00BFAC
:100ACC000837BD4680BD00BF000C014080B500AFAB
:100ADC0000F056FA00F02CF800F066F800F0B0F8D0
:100AEC000F4801F09FF90F4B04221A600D4B1B6845
:100AFC001846FFF75BFE4FF47A71032000F09EF965
:100B0C00094B14221A6001222021084800F039FDFB
:100B1C00FFF7DCFBFFF750FCFFF7E2FDF8E700BF47
:100B2C00AC0000203C0000204000002000080140E8
:100B3C0080B590B000AF07F11803282200211846A9
:100B4C0001F028FD3B1D00221A605A609A60DA60A1
:100B5C001A610223BB610123BB621023FB620023D9
:100B6C007B6307F11803184600F024FD0346002BA5
:100B7C0001D000F0CFF80F237B600023BB60002373
:100B8C00FB6000233B6100237B613B1D0021184669
:100B9C0000F090FF0346002B01D000F0BBF800BF23
:100BAC004037BD4680BD000080B586B000AF07F170
:100BBC00080300221A605A609A60DA603B460022F1
:100BCC001A605A601D4B4FF080421A601B4B41F665
:100BDC003F725A60194B00229A60184B0A22DA6055
:100BEC00164B00221A61154B00229A61134801F032
:100BFC00C9F80346002B01D000F08CF84FF4805359
:100C0C00BB6007F1080319460C4801F05FFA034674
:100C1C00002B01D000F07EF800233B6000237B60AA
:100C2C003B461946054801F027FC0346002B01D032
:100C3C0000F070F800BF1837BD4680BDAC00002036
:100C4C0080B586B000AF07F1080300221A605A6025
:100C5C009A60DA60264B9B69254A43F00403936142
:100C6C00234B9B6903F004037B607B68204B9B69DF
:100C7C001F4A43F0080393611D4B9B6903F0080363
:100C8C003B603B68002220211A4800F07AFC0022CD
:100C9C007F21194800F075FC0E23BB600023FB601C
:100CAC0001233B6107F108031946124800F0D8FAFA
:100CBC002023BB600123FB6000233B6102237B618B
:100CCC0007F1080319460B4800F0CAFA7F23BB60F2
:100CDC000123FB6000233B6102237B6107F10803C6
:100CEC001946054800F0BCFA00BF1837BD4680BD58
:100CFC000010024000080140000C014080B582B099
:100D0C0000AF786000F0E6F8FFF76AFA00BF08372A
:100D1C00BD4680BD80B400AF72B600BFFEE70000D8
:100D2C0080B485B000AF154B9B69144A43F00103A6
:100D3C009361124B9B6903F00103BB60BB680F4BC3
:100D4C00DB690E4A43F08053D3610C4BDB6903F033
:100D5C0080537B607B680A4B5B68FB60FB6823F00D
:100D6C00E063FB60FB6843F08063FB60044AFB6854
:100D7C00536000BF1437BD4680BC70470010024062
:100D8C000000014080B584B000AF78607B681B68C0
:100D9C00B3F1804F13D10C4BDB690B4A43F00103C9
:100DAC00D361094BDB6903F00103FB60FB68002294
:100DBC0000211C2000F01DFA1C2000F036FA00BFA8
:100DCC001037BD4680BD00BF0010024080B400AF9C
:100DDC00FEE780B400AFFEE780B400AFFEE780B45E
:100DEC0000AFFEE780B400AFFEE780B400AF00BFF9
:100DFC00BD4680BC704780B400AF00BFBD4680BC10
:100E0C00704780B400AF00BFBD4680BC704780B552
:100E1C0000AF00F0FBF800BF80BD000080B500AF54
:100E2C00024801F04BF800BF80BD00BFAC000020B1
:100E3C0080B400AF00BFBD4680BC704780B483B0A7
:100E4C0000AF786039603B68074A82FB031292104E
:100E5C00DB17D21A05497B6841F8232000BF0C37F9
:100E6C00BD4680BC704700BF676666668400002084
:100E7C0080B483B000AF7860074A7B68002142F8E9
:100E8C002310064A7B68002142F8231000BF0C3760
:100E9C00BD4680BC704700BF840000209800002035
:100EAC0080B483B000AF7860094A7B6852F8233075
:100EBC00002B06D0064A7B68002142F82310012340
:100ECC0000E0002318460C37BD4680BC704700BFBD
:100EDC009800002080B483B000AF00237B601CE03E
:100EEC00124A7B6852F82330002B13DD0F4A7B68C3
:100EFC0052F823305A1E0D497B6841F823200B4AC7
:100F0C007B6852F82330002B04DC094A7B680121F2
:100F1C0042F823107B6801337B607B68042BDFDD98
:100F2C0000BF00BF0C37BD4680BC7047840000205A
:100F3C00980000200C480D490D4A002302E0D458BB
:100F4C00C4500433C4188C42F9D30A4A0A4C002307
:100F5C0001E013600432A242FBD3FFF769FF01F0FA
:100F6C00F5FAFFF7B3FD7047000000205000002099
:100F7C00F025000850000020F8000020FEE70000DB
:100F8C0080B500AF084B1B68074A43F01003136091
:100F9C00032000F023F90F2000F008F8FFF7C0FE43
:100FAC000023184680BD00BF0020024080B582B0EF
:100FBC0000AF7860124B1A68124B1B7819464FF42D
:100FCC007A73B3FBF1F3B2FBF3F3184600F03BF981
:100FDC000346002B01D001230EE07B680F2B0AD8AF
:100FEC00002279684FF0FF3000F003F9064A7B6865
:100FFC001360002300E0012318460837BD4680BD6E
:10100C00440000204C0000204800002080B400AFB9
:10101C00054B1B781A46054B1B681344034A136097
:10102C0000BFBD4680BC70474C000020F40000207F
:10103C0080B400AF024B1B681846BD4680BC70479D
:10104C00F400002080B485B000AF78607B6803F0BA
:10105C000703FB600C4BDB68BB60BA684FF6FF0301
:10106C001340BB60FB681A02BB68134343F0BF63B9
:10107C0043F40033BB60044ABB68D36000BF143731
:10108C00BD4680BC704700BF00ED00E080B400AFEF
:10109C00044BDB681B0A03F007031846BD4680BCF3
:1010AC00704700BF00ED00E080B483B000AF034692
:1010BC00FB7197F90730002B0BDBFB7903F01F0258
:1010CC00064997F907305B09012000FA02F241F852
:1010DC00232000BF0C37BD4680BC704700E100E008
:1010EC0080B483B000AF03463960FB7197F90730C9
:1010FC00002B0ADB3B68DAB20C4997F90730120176
:10110C00D2B20B4483F800230AE03B68DAB20849F8
:10111C00FB7903F00F03043B1201D2B20B441A7695
:10112C0000BF0C37BD4680BC704700BF00E100E03B
:10113C0000ED00E080B489B000AFF860B9607A606F
:10114C00FB6803F00703FB61FB69C3F10703042B86
:10115C0028BF0423BB61FB690433062B02D9FB694E
:10116C00033B00E000237B614FF0FF32BB6902FAC6
:10117C0003F3DA43BB681A407B699A404FF0FF31A6
:10118C007B6901FA03F3D9437B680B401343184680
:10119C002437BD4680BC704780B582B000AF786004
:1011AC007B68013BB3F1807F01D301230FE00A4A36
:1011BC007B68013B53600F214FF0FF30FFF790FF2E
:1011CC00054B00229A60044B07221A600023184634
:1011DC000837BD4680BD00BF10E000E080B582B08E
:1011EC0000AF78607868FFF72DFF00BF0837BD4669
:1011FC0080BD80B586B000AF0346B9607A60FB73E2
:10120C0000237B61FFF742FF78617A68B9687869DF
:10121C00FFF790FF024697F90F3011461846FFF77B
:10122C005FFF00BF1837BD4680BD80B582B000AFF0
:10123C000346FB7197F907301846FFF735FF00BFDF
:10124C000837BD4680BD80B582B000AF7860786845
:10125C00FFF7A2FF034618460837BD4680BD0000C5
:10126C0080B48BB000AF7860396000237B620023C0
:10127C003B6248E101227B6A02FA03F3FB613B68A3
:10128C001B68FA691340BB61BA69FB699A4240F06A
:10129C0037813B685B68A34A93425ED0A14A934274
:1012AC0075D8A14A934258D09F4A93426FD89F4A0F
:1012BC00934252D09D4A934269D89D4A93424CD056
:1012CC009B4A934263D89B4A934246D0994A934295
:1012DC005DD8122B2AD8122B59D801A252F823F020
:1012EC0067130008411300085313000895130008F6
:1012FC009B1300089B1300089B1300089B1300080A
:10130C009B1300089B1300089B1300089B130008F9
:10131C009B1300089B1300089B1300089B130008E9
:10132C009B130008491300085D130008824A93427E
:10133C0013D02CE03B68DB683B6229E03B68DB6840
:10134C0004333B6224E03B68DB6808333B621FE0FC
:10135C003B68DB680C333B621AE03B689B68002BF4
:10136C0002D104233B6213E03B689B68012B05D13F
:10137C0008233B627B68FA691A6109E008233B6227
:10138C007B68FA695A6103E000233B6200E000BF0E
:10139C00BB69FF2B01D87B6801E07B6804337B6160
:1013AC00BB69FF2B02D87B6A9B0002E07B6A083B7F
:1013BC009B003B617B691A680F213B6901FA03F3BF
:1013CC00DB431A40396A3B6901FA03F31A437B6920
:1013DC001A603B685B6803F08053002B00F0908030
:1013EC00564B9B69554A43F001039361534B9B69E0
:1013FC0003F00103BB60BB68514A7B6A9B08023354
:10140C0052F82330FB607B6A03F003039B000F222E
:10141C0002FA03F3DB43FA681340FB607B68494A2A
:10142C0093420DD07B68484A934207D07B68474A69
:10143C00934201D1022304E0032302E0012300E0E4
:10144C0000237A6A02F0030292009340FA68134375
:10145C00FB603B497B6A9B080233FA6841F8232006
:10146C003B685B6803F48033002B06D0384B1A685A
:10147C003749BB6913430B6006E0354B1A68BB69EF
:10148C00DB43334913400B603B685B6803F4003368
:10149C00002B06D02E4B5A682D49BB6913434B6069
:1014AC0006E02B4B5A68BB69DB43294913404B6060
:1014BC003B685B6803F48013002B06D0244B9A68BE
:1014CC002349BB6913438B6006E0214B9A68BB69C7
:1014DC00DB431F4913408B603B685B6803F40013CC
:1014EC00002B06D01A4BDA681949BB691343CB6041
:1014FC0006E0174BDA68BB69DB4315491340CB6038
:10150C007B6A01337B623B681A687B6A22FA03F3BD
:10151C00002B7FF4AFAE00BF00BF2C37BD4680BCA4
:10152C00704700BF00003210000031100000221084
:10153C0000002110000012100000111000100240D9
:10154C000000014000080140000C01400010014067
:10155C000004014080B485B000AF78600B467B80FE
:10156C007B689A687B881340002B02D00123FB73A5
:10157C0001E00023FB73FB7B18461437BD4680BC8F
:10158C00704780B483B000AF78600B467B80134605
:10159C007B707B78002B03D07A887B681A6103E020
:1015AC007B881A047B681A6100BF0C37BD4680BC6F
:1015BC007047000080B586B000AF78607B68002B68
:1015CC0001D101236CE27B681B6803F00103002B43
:1015DC0000F08780924B5B6803F00C03042B0CD05B
:1015EC008F4B5B6803F00C03082B12D18C4B5B68A0
:1015FC0003F48033B3F5803F0BD1894B1B6803F4A4
:10160C000033002B6CD07B685B68002B68D1012306
:10161C0046E27B685B68B3F5803F06D1804B1B6864
:10162C007F4A43F4803313602EE07B685B68002BA9
:10163C000CD17B4B1B687A4A23F480331360784BB4
:10164C001B68774A23F4802313601DE07B685B687A
:10165C00B3F5A02F0CD1724B1B68714A43F4802355
:10166C0013606F4B1B686E4A43F4803313600BE0BE
:10167C006B4B1B686A4A23F480331360684B1B68FE
:10168C00674A23F4802313607B685B68002B13D0BC
:10169C00FFF7CEFC386108E0FFF7CAFC02463B6955
:1016AC00D31A642B01D90323FAE15D4B1B6803F4B5
:1016BC000033002BF0D014E0FFF7BAFC386108E0DF
:1016CC00FFF7B6FC02463B69D31A642B01D90323FE
:1016DC00E6E1534B1B6803F40033002BF0D100E020
:1016EC0000BF7B681B6803F00203002B63D04C4BDC
:1016FC005B6803F00C03002B0BD0494B5B6803F0C9
:10170C000C03082B1CD1464B5B6803F48033002B75
:10171C0016D1434B1B6803F00203002B05D07B68EA
:10172C001B69012B01D00123BAE13D4B1B6823F04F
:10173C00F8027B685B69DB00394913430B603AE0C4
:10174C007B681B69002B20D0364B01221A60FFF7F7
:10175C006FFC386108E0FFF76BFC02463B69D31A5B
:10176C00022B01D903239BE12D4B1B6803F00203D1
:10177C00002BF0D02A4B1B6823F0F8027B685B69C6
:10178C00DB00274913430B6015E0264B00221A603F
:10179C00FFF74EFC386108E0FFF74AFC02463B6954
:1017AC00D31A022B01D903237AE11D4B1B6803F0DA
:1017BC000203002BF0D17B681B6803F00803002B9D
:1017CC003AD07B689B69002B19D0174B01221A6009
:1017DC00FFF72EFC386108E0FFF72AFC02463B6954
:1017EC00D31A022B01D903235AE10D4B5B6A03F088
:1017FC000203002BF0D0012000F0A6FA1CE00A4BEB
:10180C0000221A60FFF714FC38610FE0FFF710FCA0
:10181C0002463B69D31A022B08D9032340E100BFCF
:10182C000010024000004242800442429E4B5B6A20
:10183C0003F00203002BE9D17B681B6803F004035F
:10184C00002B00F0A6800023FB75974BDB6903F09F
:10185C008053002B0DD1944BDB69934A43F080539A
:10186C00D361914BDB6903F08053BB60BB680123F0
:10187C00FB758E4B1B6803F48073002B18D18B4BBC
:10188C001B688A4A43F480731360FFF7D1FB3861FD
:10189C0008E0FFF7CDFB02463B69D31A642B01D954
:1018AC000323FDE0814B1B6803F48073002BF0D005
:1018BC007B68DB68012B06D17B4B1B6A7A4A43F0B1
:1018CC00010313622DE07B68DB68002B0CD1764B97
:1018DC001B6A754A23F001031362734B1B6A724A2D
:1018EC0023F0040313621CE07B68DB68052B0CD12E
:1018FC006D4B1B6A6C4A43F0040313626A4B1B6A00
:10190C00694A43F0010313620BE0674B1B6A664A9A
:10191C0023F001031362644B1B6A634A23F0040334
:10192C0013627B68DB68002B15D0FFF781FB3861F5
:10193C000AE0FFF77DFB02463B69D31A41F288327D
:10194C00934201D90323ABE0574B1B6A03F002030C
:10195C00002BEED014E0FFF76BFB38610AE0FFF7C9
:10196C0067FB02463B69D31A41F28832934201D994
:10197C00032395E04C4B1B6A03F00203002BEED1C2
:10198C00FB7D012B05D1484BDB69474A23F0805383
:10199C00D3617B68DB69002B00F08180424B5B6874
:1019AC0003F00C03082B61D07B68DB69022B46D15A
:1019BC003F4B00221A60FFF73BFB386108E0FFF752
:1019CC0037FB02463B69D31A022B01D9032367E08C
:1019DC00354B1B6803F00073002BF0D17B681B6A3E
:1019EC00B3F5803F08D1304B5B6823F400327B6841
:1019FC009B682D4913434B602B4B5B6823F474128B
:101A0C007B68196A7B685B6A0B43274913434B60FD
:101A1C00274B01221A60FFF70BFB386108E0FFF738
:101A2C0007FB02463B69D31A022B01D9032337E08B
:101A3C001D4B1B6803F00073002BF0D02FE01C4BE8
:101A4C0000221A60FFF7F4FA386108E0FFF7F0FAA9
:101A5C0002463B69D31A022B01D9032320E0124B17
:101A6C001B6803F00073002BF0D118E07B68DB6976
:101A7C00012B01D1012313E00B4B5B68FB60FB686E
:101A8C0003F480327B681B6A9A4206D1FB6803F42C
:101A9C0070127B685B6A9A4201D0012300E000233C
:101AAC0018461837BD4680BD00100240007000403B
:101ABC006000424280B584B000AF786039607B68CA
:101ACC00002B01D10123D0E06A4B1B6803F0070304
:101ADC003A689A4210D9674B1B6823F00702654994
:101AEC003B6813430B60634B1B6803F007033A68B6
:101AFC009A4201D00123B8E07B681B6803F0020313
:101B0C00002B20D07B681B6803F00403002B05D04E
:101B1C00594B5B68584A43F4E06353607B681B681D
:101B2C0003F00803002B05D0534B5B68524A43F477
:101B3C0060535360504B5B6823F0F0027B689B68EA
:101B4C004D4913434B607B681B6803F00103002B6A
:101B5C0040D07B685B68012B07D1474B1B6803F4B3
:101B6C000033002B15D101237FE07B685B68022BCF
:101B7C0007D1414B1B6803F00073002B09D10123E3
:101B8C0073E03D4B1B6803F00203002B01D10123D2
:101B9C006BE0394B5B6823F003027B685B6836496A
:101BAC0013434B60FFF744FAF8600AE0FFF740FA82
:101BBC000246FB68D31A41F28832934201D90323BF
:101BCC0053E02D4B5B6803F00C027B685B689B0059
:101BDC009A42EBD1274B1B6803F007033A689A42F1
:101BEC0010D2244B1B6823F0070222493B68134395
:101BFC000B60204B1B6803F007033A689A4201D034
:101C0C00012332E07B681B6803F00403002B08D02F
:101C1C00194B5B6823F4E0627B68DB68164913435D
:101C2C004B607B681B6803F00803002B09D0124B38
:101C3C005B6823F460527B681B69DB000E4913431D
:101C4C004B6000F021F802460B4B5B681B0903F05C
:101C5C000F030A49CB5C22FA03F3094A1360094BC0
:101C6C001B681846FFF7A2F9002318461037BD462B
:101C7C0080BD00BF0020024000100240D8250008A3
:101C8C00440000204800002090B48AB000AF2A4BDA
:101C9C003C1D0FCB84E80F0040F201233B80002356
:101CAC00FB610023BB6100237B6200237B6100236B
:101CBC003B62224B5B68FB61FB6903F00C03042B5A
:101CCC0002D0082B03D02DE01D4B3B622DE0FB69AD
:101CDC009B0C03F00F0307F12802134413F8243C68
:101CEC007B61FB6903F48033002B13D0134B5B68CF
:101CFC005B0C03F0010307F12802134413F8283C92
:101D0C00BB617B690E4A02FB03F2BB69B2FBF3F3C6
:101D1C007B6204E07B690B4A02FB03F37B627B6A08
:101D2C003B6202E0064B3B6200BF3B6A1846283719
:101D3C00BD4690BC704700BFC8250008001002408B
:101D4C0000127A0000093D0080B485B000AF7860C5
:101D5C000A4B1B680A4AA2FB03235B0A7A6802FB44
:101D6C0003F3FB6000BFFB685A1EFA60002BF9D12D
:101D7C0000BF00BF1437BD4680BC70474400002034
:101D8C00D34D621080B582B000AF78607B68002BB9
:101D9C0001D1012341E07B6893F83D30DBB2002B8D
:101DAC0006D17B68002283F83C207868FEF7EAFFB6
:101DBC007B68022283F83D207B681A687B680433B9
:101DCC001946104600F06AFA7B68012283F8462017
:101DDC007B68012283F83E207B68012283F83F2038
:101DEC007B68012283F840207B68012283F8412024
:101DFC007B68012283F842207B68012283F8432010
:101E0C007B68012283F844207B68012283F84520FB
:101E1C007B68012283F83D20002318460837BD4615
:101E2C0080BD000080B485B000AF78607B6893F80B
:101E3C003D30DBB2012B01D0012335E07B6802225F
:101E4C0083F83D207B681B68DA687B681B6842F06E
:101E5C000102DA607B681B68164A934209D07B68E2
:101E6C001B68B3F1804F04D07B681B68124A934205
:101E7C0011D17B681B689B6803F00703FB60FB6850
:101E8C00062B10D07B681B681A687B681B6842F0B5
:101E9C0001021A6007E07B681B681A687B681B6884
:101EAC0042F001021A60002318461437BD4680BC6C
:101EBC00704700BF002C01400004004080B582B088
:101ECC0000AF78607B681B681B6903F00203022B70
:101EDC0022D17B681B68DB6803F00203022B1BD149
:101EEC007B681B686FF002021A617B6801221A770B
:101EFC007B681B689B6903F00303002B03D0786895
:101F0C0000F0B1F905E0786800F0A4F9786800F009
:101F1C00B3F97B6800221A777B681B681B6903F096
:101F2C000403042B22D17B681B68DB6803F00403D9
:101F3C00042B1BD17B681B686FF004021A617B6851
:101F4C0002221A777B681B689B6903F44073002B91
:101F5C0003D0786800F087F905E0786800F07AF92A
:101F6C00786800F089F97B6800221A777B681B6817
:101F7C001B6903F00803082B22D17B681B68DB6804
:101F8C0003F00803082B1BD17B681B686FF0080259
:101F9C001A617B6804221A777B681B68DB6903F083
:101FAC000303002B03D0786800F05DF905E0786836
:101FBC0000F050F9786800F05FF97B6800221A771E
:101FCC007B681B681B6903F01003102B22D17B6804
:101FDC001B68DB6803F01003102B1BD17B681B689C
:101FEC006FF010021A617B6808221A777B681B68F5
:101FFC00DB6903F44073002B03D0786800F033F9ED
:10200C0005E0786800F026F9786800F035F97B680F
:10201C0000221A777B681B681B6903F00103012BF4
:10202C000ED17B681B68DB6803F00103012B07D121
:10203C007B681B686FF001021A617868FEF75EFE20
:10204C007B681B681B6903F08003802B0ED17B68B7
:10205C001B68DB6803F08003802B07D17B681B684F
:10206C006FF080021A61786800F067FA7B681B6871
:10207C001B6903F04003402B0ED17B681B68DB68A7
:10208C0003F04003402B07D17B681B686FF04002C4
:10209C001A61786800F0F9F87B681B681B6903F01B
:1020AC002003202B0ED17B681B68DB6803F0200318
:1020BC00202B07D17B681B686FF020021A617868AF
:1020CC0000F032FA00BF0837BD4680BD80B584B041
:1020DC0000AF786039607B6893F83C30012B01D1FC
:1020EC000223B3E07B68012283F83C207B68022248
:1020FC0083F83D207B681B689B68FB60FB6823F0C2
:10210C007703FB60FB6823F47F43FB607B681B68F1
:10211C00FA689A603B681B68B3F5005F3ED0B3F574
:10212C00005F00F28780B3F5805F00F08580B3F527
:10213C00805F7FD8702B1AD0702B7BD8602B50D03F
:10214C00602B77D8502B3CD0502B73D8402B58D0C9
:10215C00402B6FD8302B64D0302B6BD8202B60D019
:10216C00202B67D8002B5CD0102B5AD062E07B68F8
:10217C0018683B6899683B685A683B68DB6800F0F4
:10218C005CF97B681B689B68FB60FB6843F077031A
:10219C00FB607B681B68FA689A604EE07B68186885
:1021AC003B6899683B685A683B68DB6800F045F906
:1021BC007B681B689A687B681B6842F480429A6053
:1021CC003BE07B6818683B6859683B68DB681A46DB
:1021DC0000F0BCF87B681B685021184600F013F91E
:1021EC002BE07B6818683B6859683B68DB681A46CB
:1021FC0000F0DAF87B681B686021184600F003F9E0
:10220C001BE07B6818683B6859683B68DB681A46BA
:10221C0000F09CF87B681B684021184600F0F3F82E
:10222C000BE07B681A683B681B681946104600F087
:10223C00EAF802E000BF00E000BF7B68012283F8EF
:10224C003D207B68002283F83C2000231846103781
:10225C00BD4680BD80B483B000AF786000BF0C3742
:10226C00BD4680BC704780B483B000AF786000BFBF
:10227C000C37BD4680BC704780B483B000AF78602B
:10228C0000BF0C37BD4680BC704780B483B000AF34
:10229C00786000BF0C37BD4680BC704780B485B0F9
:1022AC0000AF786039607B681B68FB607B68254AEF
:1022BC00934207D07B68B3F1804F03D07B68224AEE
:1022CC00934208D1FB6823F07003FB603B685B68AA
:1022DC00FA681343FB607B681A4A934207D07B6809
:1022EC00B3F1804F03D07B68174A934208D1FB6847
:1022FC0023F44073FB603B68DB68FA681343FB60B4
:10230C00FB6823F080023B685B691343FB607B68CE
:10231C00FA681A603B689A687B68DA623B681A68EC
:10232C007B689A627B68074A934203D13B681A69BF
:10233C007B681A637B6801225A6100BF1437BD4663
:10234C0080BC7047002C01400004004080B487B072
:10235C0000AFF860B9607A60FB681B6A7B61FB6850
:10236C001B6A23F00102FB681A62FB689B693B61E4
:10237C003B6923F0F0033B617B681B013A69134313
:10238C003B617B6923F00A037B617A69BB68134369
:10239C007B61FB683A699A61FB687A691A6200BFD3
:1023AC001C37BD4680BC704780B487B000AFF86066
:1023BC00B9607A60FB681B6A23F01002FB681A6232
:1023CC00FB689B697B61FB681B6A3B617B6923F43F
:1023DC0070437B617B681B037A6913437B613B69A8
:1023EC0023F0A0033B61BB681B013A6913433B61BB
:1023FC00FB687A699A61FB683A691A6200BF1C37FC
:10240C00BD4680BC704780B485B000AF7860396041
:10241C007B689B68FB60FB6823F07003FB603A6889
:10242C00FB68134343F00703FB607B68FA689A6010
:10243C0000BF1437BD4680BC704780B487B000AF76
:10244C00F860B9607A603B60FB689B687B617B6974
:10245C0023F47F437B613B681A027B681A43BB6899
:10246C0013437A6913437B61FB687A699A6000BFF6
:10247C001C37BD4680BC704780B485B000AF786017
:10248C0039607B6893F83C30012B01D1022341E089
:10249C007B68012283F83C207B68022283F83D2074
:1024AC007B681B685B68FB607B681B689B68BB6018
:1024BC00FB6823F07003FB603B681B68FA681343EE
:1024CC00FB607B681B68FA685A607B681B68144A5F
:1024DC00934209D07B681B68B3F1804F04D07B68B2
:1024EC001B68104A93420CD1BB6823F08003BB607D
:1024FC003B685B68BA681343BB607B681B68BA684F
:10250C009A607B68012283F83D207B68002283F867
:10251C003C20002318461437BD4680BC704700BFD2
:10252C00002C01400004004080B483B000AF786000
:10253C0000BF0C37BD4680BC704780B483B000AF81
:10254C00786000BF0C37BD4680BC704770B5002664
:10255C000C4D0D4C641BA410A64209D100F022F8BE
:10256C0000260A4D0A4C641BA410A64205D170BD6E
:10257C0055F8043B98470136EEE755F8043B98476D
:10258C000136F2E7E8250008E8250008E8250008F0
:10259C00EC25000803460244934200D1704703F82F
:1025AC00011BF9E7F8B500BFF8BC08BC9E467047A4
:0C25BC00F8B500BFF8BC08BC9E46704794
:1025C80002030405060708090A0B0C0D0E0F10106C
:1025D80000000000000000000102030406070809CB
:0425E80031010008B5
:0425EC000D010008D5
:1025F0000A0000000A0000000A00000001000000BC
:1026000001000000010000000100000001000000C6
:1026100001000000010000000100000001000000B6
:10262000010000000100000001000000090000009E
:10263000140000000024F40010000000010000005D
:0400000508000F419F
:00000001FF
